{
  "contractName": "Holder",
  "abi": [
    {
      "anonymous": false,
      "inputs": [
        {
          "indexed": true,
          "internalType": "address",
          "name": "previousOwner",
          "type": "address"
        },
        {
          "indexed": true,
          "internalType": "address",
          "name": "newOwner",
          "type": "address"
        }
      ],
      "name": "OwnershipTransferred",
      "type": "event"
    },
    {
      "inputs": [
        {
          "internalType": "address",
          "name": "_addressToWhitelist",
          "type": "address"
        }
      ],
      "name": "addUser",
      "outputs": [],
      "stateMutability": "nonpayable",
      "type": "function"
    },
    {
      "inputs": [],
      "name": "close",
      "outputs": [],
      "stateMutability": "nonpayable",
      "type": "function"
    },
    {
      "inputs": [],
      "name": "exampleFunction",
      "outputs": [
        {
          "internalType": "bool",
          "name": "",
          "type": "bool"
        }
      ],
      "stateMutability": "view",
      "type": "function",
      "constant": true
    },
    {
      "inputs": [],
      "name": "owner",
      "outputs": [
        {
          "internalType": "address",
          "name": "",
          "type": "address"
        }
      ],
      "stateMutability": "view",
      "type": "function",
      "constant": true
    },
    {
      "inputs": [
        {
          "internalType": "address",
          "name": "_addressToWhitelist",
          "type": "address"
        }
      ],
      "name": "removeUser",
      "outputs": [],
      "stateMutability": "nonpayable",
      "type": "function"
    },
    {
      "inputs": [],
      "name": "renounceOwnership",
      "outputs": [],
      "stateMutability": "nonpayable",
      "type": "function"
    },
    {
      "inputs": [
        {
          "internalType": "address",
          "name": "newOwner",
          "type": "address"
        }
      ],
      "name": "transferOwnership",
      "outputs": [],
      "stateMutability": "nonpayable",
      "type": "function"
    },
    {
      "inputs": [],
      "name": "whitelistCount",
      "outputs": [
        {
          "internalType": "uint256",
          "name": "",
          "type": "uint256"
        }
      ],
      "stateMutability": "view",
      "type": "function",
      "constant": true
    },
    {
      "inputs": [
        {
          "internalType": "address",
          "name": "",
          "type": "address"
        }
      ],
      "name": "whitelistedAddresses",
      "outputs": [
        {
          "internalType": "bool",
          "name": "",
          "type": "bool"
        }
      ],
      "stateMutability": "view",
      "type": "function",
      "constant": true
    },
    {
      "inputs": [],
      "name": "getBalance",
      "outputs": [
        {
          "internalType": "uint256",
          "name": "",
          "type": "uint256"
        }
      ],
      "stateMutability": "view",
      "type": "function",
      "constant": true
    },
    {
      "inputs": [],
      "name": "withdraw",
      "outputs": [],
      "stateMutability": "nonpayable",
      "type": "function"
    }
  ],
  "bytecode": "0x608060405234801561001057600080fd5b5061002d61002261003260201b60201c565b61003a60201b60201c565b6100fe565b600033905090565b60008060009054906101000a900473ffffffffffffffffffffffffffffffffffffffff169050816000806101000a81548173ffffffffffffffffffffffffffffffffffffffff021916908373ffffffffffffffffffffffffffffffffffffffff1602179055508173ffffffffffffffffffffffffffffffffffffffff168173ffffffffffffffffffffffffffffffffffffffff167f8be0079c531659141344cd1fd0a4f28419497f9722a3daafe3b4186f6b6457e060405160405180910390a35050565b610c238061010d6000396000f3fe608060405234801561001057600080fd5b50600436106100a95760003560e01c8063715018a611610071578063715018a61461012c5780638da5cb5b146101365780639857518814610154578063ce2f67a214610170578063f2624b5d1461018e578063f2fde38b146101ac576100a9565b806306c933d8146100ae57806312065fe0146100de5780633ccfd60b146100fc578063421b2d8b1461010657806343d726d614610122575b600080fd5b6100c860048036038101906100c3919061091f565b6101c8565b6040516100d59190610967565b60405180910390f35b6100e66101e8565b6040516100f3919061099b565b60405180910390f35b6101046101f0565b005b610120600480360381019061011b919061091f565b6102c2565b005b61012a6103a3565b005b61013461043f565b005b61013e6104c7565b60405161014b91906109c5565b60405180910390f35b61016e6004803603810190610169919061091f565b6104f0565b005b6101786105d1565b6040516101859190610967565b60405180910390f35b610196610668565b6040516101a3919061099b565b60405180910390f35b6101c660048036038101906101c1919061091f565b610679565b005b60026020528060005260406000206000915054906101000a900460ff1681565b600047905090565b6101f8610770565b73ffffffffffffffffffffffffffffffffffffffff166102166104c7565b73ffffffffffffffffffffffffffffffffffffffff161461026c576040517f08c379a000000000000000000000000000000000000000000000000000000000815260040161026390610a3d565b60405180910390fd5b60006102766104c7565b90508073ffffffffffffffffffffffffffffffffffffffff166108fc479081150290604051600060405180830381858888f193505050501580156102be573d6000803e3d6000fd5b5050565b6102ca610770565b73ffffffffffffffffffffffffffffffffffffffff166102e86104c7565b73ffffffffffffffffffffffffffffffffffffffff161461033e576040517f08c379a000000000000000000000000000000000000000000000000000000000815260040161033590610a3d565b60405180910390fd5b6001600260008373ffffffffffffffffffffffffffffffffffffffff1673ffffffffffffffffffffffffffffffffffffffff16815260200190815260200160002060006101000a81548160ff0219169083151502179055506103a06001610778565b50565b6103ab610770565b73ffffffffffffffffffffffffffffffffffffffff166103c96104c7565b73ffffffffffffffffffffffffffffffffffffffff161461041f576040517f08c379a000000000000000000000000000000000000000000000000000000000815260040161041690610a3d565b60405180910390fd5b6104276104c7565b73ffffffffffffffffffffffffffffffffffffffff16ff5b610447610770565b73ffffffffffffffffffffffffffffffffffffffff166104656104c7565b73ffffffffffffffffffffffffffffffffffffffff16146104bb576040517f08c379a00000000000000000000000000000000000000000000000000000000081526004016104b290610a3d565b60405180910390fd5b6104c5600061078e565b565b60008060009054906101000a900473ffffffffffffffffffffffffffffffffffffffff16905090565b6104f8610770565b73ffffffffffffffffffffffffffffffffffffffff166105166104c7565b73ffffffffffffffffffffffffffffffffffffffff161461056c576040517f08c379a000000000000000000000000000000000000000000000000000000000815260040161056390610a3d565b60405180910390fd5b6000600260008373ffffffffffffffffffffffffffffffffffffffff1673ffffffffffffffffffffffffffffffffffffffff16815260200190815260200160002060006101000a81548160ff0219169083151502179055506105ce6001610852565b50565b600033600260008273ffffffffffffffffffffffffffffffffffffffff1673ffffffffffffffffffffffffffffffffffffffff16815260200190815260200160002060009054906101000a900460ff16610660576040517f08c379a000000000000000000000000000000000000000000000000000000000815260040161065790610acf565b60405180910390fd5b600191505090565b600061067460016108ae565b905090565b610681610770565b73ffffffffffffffffffffffffffffffffffffffff1661069f6104c7565b73ffffffffffffffffffffffffffffffffffffffff16146106f5576040517f08c379a00000000000000000000000000000000000000000000000000000000081526004016106ec90610a3d565b60405180910390fd5b600073ffffffffffffffffffffffffffffffffffffffff168173ffffffffffffffffffffffffffffffffffffffff1603610764576040517f08c379a000000000000000000000000000000000000000000000000000000000815260040161075b90610b61565b60405180910390fd5b61076d8161078e565b50565b600033905090565b6001816000016000828254019250508190555050565b60008060009054906101000a900473ffffffffffffffffffffffffffffffffffffffff169050816000806101000a81548173ffffffffffffffffffffffffffffffffffffffff021916908373ffffffffffffffffffffffffffffffffffffffff1602179055508173ffffffffffffffffffffffffffffffffffffffff168173ffffffffffffffffffffffffffffffffffffffff167f8be0079c531659141344cd1fd0a4f28419497f9722a3daafe3b4186f6b6457e060405160405180910390a35050565b6000816000015490506000811161089e576040517f08c379a000000000000000000000000000000000000000000000000000000000815260040161089590610bcd565b60405180910390fd5b6001810382600001819055505050565b600081600001549050919050565b600080fd5b600073ffffffffffffffffffffffffffffffffffffffff82169050919050565b60006108ec826108c1565b9050919050565b6108fc816108e1565b811461090757600080fd5b50565b600081359050610919816108f3565b92915050565b600060208284031215610935576109346108bc565b5b60006109438482850161090a565b91505092915050565b60008115159050919050565b6109618161094c565b82525050565b600060208201905061097c6000830184610958565b92915050565b6000819050919050565b61099581610982565b82525050565b60006020820190506109b0600083018461098c565b92915050565b6109bf816108e1565b82525050565b60006020820190506109da60008301846109b6565b92915050565b600082825260208201905092915050565b7f4f776e61626c653a2063616c6c6572206973206e6f7420746865206f776e6572600082015250565b6000610a276020836109e0565b9150610a32826109f1565b602082019050919050565b60006020820190508181036000830152610a5681610a1a565b9050919050565b7f57686974656c6973743a20596f75206e65656420746f2062652077686974656c60008201527f6973746564000000000000000000000000000000000000000000000000000000602082015250565b6000610ab96025836109e0565b9150610ac482610a5d565b604082019050919050565b60006020820190508181036000830152610ae881610aac565b9050919050565b7f4f776e61626c653a206e6577206f776e657220697320746865207a65726f206160008201527f6464726573730000000000000000000000000000000000000000000000000000602082015250565b6000610b4b6026836109e0565b9150610b5682610aef565b604082019050919050565b60006020820190508181036000830152610b7a81610b3e565b9050919050565b7f436f756e7465723a2064656372656d656e74206f766572666c6f770000000000600082015250565b6000610bb7601b836109e0565b9150610bc282610b81565b602082019050919050565b60006020820190508181036000830152610be681610baa565b905091905056fea26469706673582212207384d3d50a84b88cebee435cdb14a7a66628ca4e4ea43b88bb29aa3771992a4c64736f6c634300080d0033",
  "immutableReferences": {},
  "source": "// SPDX-License-Identifier: GPL-3.0\n\npragma solidity >=0.7.0 <0.9.0;\n\nimport \"@openzeppelin/contracts/access/Ownable.sol\";\nimport \"@openzeppelin/contracts/utils/Counters.sol\";\n\ninterface Whitelist {\n    function addUser(address _addressToWhitelist) external;\n\n    function removeUser(address _addressToWhitelist) external;\n\n    function whitelistCount() external view returns (uint256);\n\n    function close() external;\n}\n\ncontract PublicWhitelist is Ownable, Whitelist {\n    using Counters for Counters.Counter;\n\n    Counters.Counter private _whiteListCounter;\n\n    mapping(address => bool) public whitelistedAddresses;\n\n    modifier isWhitelisted(address _address) {\n        require(\n            whitelistedAddresses[_address],\n            \"Whitelist: You need to be whitelisted\"\n        );\n        _;\n    }\n\n    function addUser(address _addressToWhitelist) public onlyOwner {\n        whitelistedAddresses[_addressToWhitelist] = true;\n        _whiteListCounter.increment();\n    }\n\n    function removeUser(address _addressToWhitelist) public onlyOwner {\n        whitelistedAddresses[_addressToWhitelist] = false;\n        /* Si on ajoute ce test le cot en gas passe  60000\n        if (whitelistCount() > 0) */\n        _whiteListCounter.decrement();\n    }\n\n    function whitelistCount() public view returns (uint256) {\n        return _whiteListCounter.current();\n    }\n\n    function close() public onlyOwner {\n        selfdestruct(payable(owner()));\n    }\n\n    function exampleFunction()\n        public\n        view\n        isWhitelisted(msg.sender)\n        returns (bool)\n    {\n        return (true);\n    }\n}\n\ncontract AuthorisedWhitelist is PublicWhitelist {\n    using Counters for Counters.Counter;\n\n    Counters.Counter private _whiteListCounter;\n\n    mapping(address => bool) private compliantAddresses;\n\n    modifier isAuthorised(address _address) {\n        require(\n            whitelistedAddresses[_address],\n            \"Whitelist: You need to be whitelisted\"\n        );\n        _;\n    }\n\n    function addCertificate(address _addressToWhitelist) public onlyOwner {\n        compliantAddresses[_addressToWhitelist] = true;\n        whitelistedAddresses[_addressToWhitelist] = true;\n        _whiteListCounter.increment();\n    }\n\n    function removeCertificate(address _addressToWhitelist) public onlyOwner {\n        compliantAddresses[_addressToWhitelist] = false;\n        whitelistedAddresses[_addressToWhitelist] = false;\n        /* Si on ajoute ce test le cot en gas passe  60000\n        if (whitelistCount() > 0) */\n        _whiteListCounter.decrement();\n    }\n\n    function checkUser(address _address)\n        public\n        view\n        isAuthorised(msg.sender)\n        returns (bool)\n    {\n        return compliantAddresses[_address];\n    }\n}\n\ncontract Holder is PublicWhitelist {\n    function getBalance() public view returns (uint256) {\n        return address(this).balance;\n    }\n\n    function withdraw() public onlyOwner {\n        address payable owner_address;\n        owner_address = payable(owner());\n        owner_address.transfer(address(this).balance);\n    }\n}\n",
  "sourcePath": "/Users/cramananjaona/Public/Programmes/Javascript/sesame2/contracts/Holder.sol",
  "compiler": {
    "name": "solc",
    "version": "0.8.13+commit.abaa5c0e.Emscripten.clang"
  },
  "schemaVersion": "3.4.7",
  "updatedAt": "2022-06-13T12:48:05.599Z",
  "networkType": "ethereum",
  "devdoc": {
    "kind": "dev",
    "methods": {
      "owner()": {
        "details": "Returns the address of the current owner."
      },
      "renounceOwnership()": {
        "details": "Leaves the contract without owner. It will not be possible to call `onlyOwner` functions anymore. Can only be called by the current owner. NOTE: Renouncing ownership will leave the contract without an owner, thereby removing any functionality that is only available to the owner."
      },
      "transferOwnership(address)": {
        "details": "Transfers ownership of the contract to a new account (`newOwner`). Can only be called by the current owner."
      }
    },
    "version": 1
  },
  "userdoc": {
    "kind": "user",
    "methods": {},
    "version": 1
  }
}